:060000000A128A11842996
:10000800F000030EF1000B1918210C1892200B1C9C
:1000180017282C181C28AC1824282C194228AC198D
:1000280060282C1A7E28710E8300F00E700E0900CD
:10003800061D20200B101728AC01AC16AC140800C4
:10004800061C2C20861C3520061D3E200B10172868
:100058004808143C031DC80A031D34280A30C80088
:10006800080048080A3C031DC803031D3D28143036
:10007800C8000800AC012C15AC160800061C4A2064
:10008800861C5320061D5C200B1017284908143CB9
:10009800031DC90A031D52280A30C900080049086F
:1000A8000A3C031DC903031D5B281430C90008005E
:1000B800AC01AC15AC160800061C6820861C712023
:1000C800061D7A200B1017284A08143C031DCA0A7B
:1000D800031D70280A30CA0008004A080A3C031D9C
:1000E800CA03031D79281430CA000800AC012C1675
:1000F800AC160800061C8420861C8A200B101728C2
:100108000130B2002C17A001A10108000A30C80074
:10011800C900CA00AC0186132C140800031383120B
:1001280085308F00EE308E000C102C1BA22020187A
:10013800A620A018CC202019F2200800B20B080035
:10014800AC170800C203A303AA03AB030630A3023B
:100158002218C0200319C220221CA3070330A302BF
:10016800A218C020A218BC280319C520A21CA307E6
:1001780023080319C9200800A30708002214A307AD
:1001880008002210A214A3070800A21022150800D4
:10019800C303A403A903AB030630A4022218E62074
:1001A8000319E820221CA4070330A402A218E620A1
:1001B800A218E2280319EB20A21CA407240803199B
:1001C800EF200800A40708002214A4070800221042
:1001D800A214A4070800A21022150800C403A5034E
:1001E800A903AA030630A50222180C2103190E211F
:1001F800221CA5070330A502A2180C21A218082961
:1002080003191121A21CA5072508031915210800A7
:10021800A50708002214A50708002210A214A507A4
:100228000800A2102215080003138312FE30810073
:100238000B11880145182E29C518342945193A2962
:10024800C5194029451A4629C51A4C29451B522962
:10025800C51B5A293708870088150230C5000800D1
:100268003608870008150430C50008003C088700D8
:1002780088160830C50008003B08870008161030AB
:10028800C50008004108870088172030C50008000D
:100298004008870008174030C5000800AC1E5729E1
:1002A8003108870088148030C5000800AC1E5F291B
:0C02B8003008870008140130C500080061
:1002E0008A010A140F3982073F3406345B344F34D5
:1002F00066346D347D3407347F346F3477347C3426
:1003000039345E3479347134CC22112318232523F7
:10031000F8220723F322EA22EF22AC189C212C19A1
:10032000A321AC19AA212C1BB1292018E721A01860
:100330001222201938228D298616061386134808A2
:10034000AD00D32108008612061786134908AD00B8
:10035000D32108008612061386174A08AD00D32160
:10036000080085018901861606178617051485156C
:100370000914C422AC1F8D294808C2004908C300D3
:100380004A08C4000A30C800C900CA0085018901B2
:10039000051585150914AC01A2012C142014861230
:1003A000061386138D29AE01AF010A30AD02031882
:1003B000AF0A0318D629AD072D08AE00B001B10170
:1003C0002F087021B0002E087021B1000800211CF8
:1003D000092264227E2298222218F321A218FD21EC
:1003E0002219002208000511F8210515F82108003E
:1003F0007C30C600C60BFA290800051185140800D8
:100400008510051485168511A001A0142110A201E4
:1004100008004208A300A600AA00AB004308AB07EF
:1004200021140800A11C2F2264227E229822221867
:100430001E22A21823222219262208008512F82142
:100440008516F82108008512051608000512851585
:10045000091509102015A010A110A20108004308D9
:10046000A400A700AB00A9004408A907A114080034
:10047000211D5B2264227E22982222184422A21887
:10048000492222194C2208000911F8210915F821E6
:1004900008000911891408000510051509148910B0
:1004A000201420112111A2012608C2002708C30030
:1004B0002808C40008004408A500A800A900AA0054
:1004C0002608AA07211508002118B522A118B22272
:1004D0002119B222B501B4010A30B3020318B40ADB
:1004E00003186D2AB3073308B500B601B701340805
:1004F0007021B60035087021B70008002118B82215
:10050000A118BB222119B822BA01B9010A30B802D8
:100510000318B90A0318872AB8073808BA00BB01BC
:10052000BC0139087021BB003A087021BC000800EA
:100530002118BE22A118BE222119C122BF01BE016D
:100540000A30BD020318BE0A0318A12ABD073D08E0
:10055000BF00C001C1013E087021C0003F087021EA
:10056000C10008002908B30008004208B3000800D1
:100570002A08B80008004308B80008002B08BD008E
:1005800008004408BD0008000030B300B800BD00FA
:1005900064227E22982208000317831688018901AD
:1005A00003138316850187018801890106148614C7
:1005B0000615861206138613811315149514151546
:1005C00003138312850186018701880189012014A4
:1005D0002C1408000A30C800C900CA00080005151C
:1005E0008515091408000A30C200C300C4000800C1
:1005F000031383128B170B178B150B108B160B1114
:10060000031383160C14031383120C100800031336
:1006100083161614961416150313831206080B106E
:100620000800031383160F178F120F120F14080000
:100630000313831681128111011581140114031310
:100640008312FE3081000B11080003138312101473
:100650009010101690160313831285308F00EE3021
:060660008E000C100800E2
:04400E00C430FF3F7C
:00000001FF
