:060000000A128A11142906
:10000800F000030EF1000B1998200C1818208C181A
:100018001220710E8300F00E700E09000313831274
:10002800FF3092008C1008000313831285308F0074
:10003800EE308E000C1020182620A0184C20201915
:1000480072200800BF03A303AA03AB030630A30270
:100058002218402003194220221CA3070330A302C0
:10006800A2184020A2183C2803194520A21CA30767
:100078002308031949200800A30708002214A3072E
:1000880008002210A214A3070800A21022150800D5
:10009800C003A403A903AB030630A40222186620F8
:1000A80003196820221CA4070330A402A2186620A2
:1000B800A218622803196B20A21CA407240803199C
:1000C8006F200800A40708002214A40708002210C3
:1000D800A214A4070800A21022150800C103A50352
:1000E800A903AA030630A50222188C2003198E2022
:1000F800221CA5070330A502A2188C20A218882864
:1001080003199120A21CA5072508031995200800AA
:10011800A50708002214A50708002210A214A507A5
:100128000800A2102215080003138312FE30810074
:100138000B1188014218AE28C218B4284219BA28EF
:10014800C219C028421AC628C21ACC28421BD22873
:10015800C21BD8283408870088150230C20008005E
:100168003308870008150430C200080039088700E2
:1001780088160830C20008003808870008161030B2
:10018800C20008003E08870088172030C200080017
:100198003D08870008174030C20008002F08870074
:1001A80088148030C20008002E0887000814013027
:0401B800C200080079
:100200008A010A140F3982073F3406345B344F34B5
:1002100066346D347D3407347F346F3477347C3406
:1002200039345E347934713400222C223322402256
:100230004E221D221622122220182321A0184E2100
:10024000201974211C29211C4521A021BA21D42167
:1002500022182F21A218392122193C21080005114A
:1002600034210515342108007C30C500C50B362922
:1002700008000511851408008510051485168511E0
:10028000A001A0142110A20108003F08A300A600AD
:10029000AA00AB074008AB0721140800A11C6B2182
:1002A000A021BA21D42122185A21A2185F21221993
:1002B0006221080085123421851634210800851238
:1002C0000516080005128515091509102015A0103E
:1002D000A110A20108004008A400A700AB00A907D4
:1002E0004108A907A1140800211D9721A021BA21C6
:1002F000D42122188021A2188521221988210800E2
:100300000911342109153421080009118914080044
:100310000510051509148910201420112111A201BE
:100320002608BF002708C0002808C10008004108AF
:10033000A500A800A900AA002608AA072115080000
:100340002118F121A118EE212119EE21B201B101EC
:100350000A30B0020318B10A0318A929B0073008FF
:10036000B200B301B40131080021B300320800210A
:10037000B40008002118F421A118F7212119F42153
:10038000B701B6010A30B5020318B60A0318C3292B
:10039000B5073508B700B801B90136080021B80023
:1003A00037080021B90008002118FA21A118FA2104
:1003B0002119FD21BC01BB010A30BA020318BB0A96
:1003C0000318DD29BA073A08BC00BD01BE013B088D
:1003D0000021BD003C080021BE0008002908B00033
:1003E00008003F08B00008002A08B50008004008CF
:1003F000B50008002B08BA0008004108BA00080040
:100400000317831688018901031383168501870169
:1004100088018901031383128501870188018901FD
:100420002014080005158515091408000730BF00C1
:100430000730C0000730C1000800031383128B1778
:100440000B178B160B11031383160C148C14031348
:1004500083120C108C100800031383160F178F12D1
:100460000F120F1408000313831681128111011556
:100470008114011403138312FE3081000B11080054
:100480000313831210149010101690160313831286
:1004900085308F00EE308E000C100800031383129D
:1004A0001215121792161216921592149215031322
:0A04B0008312FF3092008C10080048
:04400E00C430FF3F7C
:00000001FF
