:060000000A128A11142906
:10000800F000030EF1000B1923200C1818208C188F
:100018001220710E8300F00E700E09000313831274
:10002800FF3092008C1008000313831285308F0074
:10003800EE308E000C10B303B403B50308000313AD
:100048008312FE3081000B11880136183928B61842
:100058003F2836194528B6194B28361A5128B61A9A
:100068005728361B5D28B61B632828088700881583
:100078000230B60008002708870008150430B600CB
:1000880008002D08870088160830B60008002C08DC
:10009800870008161030B600080032088700881755
:1000A8002030B60008003108870008174030B60035
:1000B80008002308870088148030B600080022084A
:0A00C800870008140130B60008009C
:100200008A010A140F3982073F3406345B344F34B5
:1002100066346D347D3407347F346F3477347C3406
:1002200039345E3479347134612188218F219C21E5
:10023000AA21792172211F2135214B211B29330845
:10024000A400A601A5010A30A4020318A50A0318F8
:100250002429A4072408A600A701A8012508002135
:10026000A70026080021A80008003408A900AB0157
:10027000AA010A30A9020318AA0A03183A29A907F1
:100280002908AB00AC01AD012A080021AC002B0805
:100290000021AD0008003508AE00B001AF010A3002
:1002A000AE020318AF0A03185029AE072E08B0009B
:1002B000B101B2012F080021B10030080021B200C5
:1002C000080003178316880189010313831685012B
:1002D0008701880189010313831285018701880141
:1002E000890108000A30B3000F30B4001430B500A3
:1002F0000800031383128B170B178B160B110313B4
:1003000083160C148C14031383120C108C10080029
:10031000031383160F178F120F120F140800031305
:1003200083168112811101158114011403138312A4
:10033000FE3081000B11080003138312101490107B
:10034000101690160313831285308F00EE308E0046
:100350000C100800031383121215121792161216AE
:1003600092159214921503138312FF3092008C1091
:02037000080083
:04400E00C430FF3F7C
:00000001FF
