:060000000A128A11142906
:10000800F000030EF1000B1992200C1818208C1820
:100018001220710E8300F00E700E09000313831274
:10002800FF3092008C1008000313831285308F0074
:10003800EE308E000C1020182620A0184A20201917
:100048006E200800B903A3030630A30222183E203D
:1000580003194020221CA3070330A302A2183E2044
:10006800A2183A2803194320A21CA307230803193E
:1000780047200800A30708002214A307080022103D
:10008800A214A3070800A21022150800BA03A403AB
:100098000630A4022218622003196420221CA40737
:1000A8000330A402A2186220A2185E280319672050
:1000B800A21CA407240803196B200800A407080041
:1000C8002214A40708002210A214A4070800A210F2
:1000D80022150800BB03A5030630A50222188620B6
:1000E80003198820221CA5070330A502A218862020
:1000F800A218822803198B20A21CA507250803191A
:100108008F200800A50708002214A5070800221060
:10011800A214A5070800A2102215080003138312D1
:10012800FE3081000B1188013C18A828BC18AE28A5
:100138003C19B428BC19BA283C1AC028BC1AC628CD
:100148003C1BCC28BC1BD2282E08870088150230FF
:10015800BC0008002D08870008150430BC00080002
:100168003308870088160830BC000800320887006A
:1001780008161030BC00080038088700881720309F
:10018800BC0008003708870008174030BC0008008A
:100198002908870088148030BC00080028088700D8
:0801A80008140130BC0008003E
:100200008A010A140F3982073F3406345B344F34B5
:1002100066346D347D3407347F346F3477347C3406
:1002200039345E3479347134C421F021F721042249
:100230001222E121DA21D62120182321A0184621FB
:10024000201964211C29211C4221822122182D21E0
:10025000A21836212219392108000511312105156E
:100260000800F930BF00BF0B3329080005118514C1
:1002700008008510051485168511A001A014211011
:10028000A20108003908A30021140800A11C602164
:10029000982122185021A218542122195721080010
:1002A00085123121851608008512051608000512F1
:1002B0008515091509102015A010A110A20108002C
:1002C0003A08A400A1140800211D7E21AE212218A5
:1002D0006E21A218722122197521080009113121FD
:1002E00009150800091189140800051005150914DD
:1002F0008910201420112111A20108003B08A5003B
:10030000211508003908AA00AC01AB010A30AA0285
:100310000318AB0A03188729AA072A08AC00AD0105
:10032000AE012B080021AD002C080021AE00080012
:100330003A08AF00B101B0010A30AF020318B00AA9
:1003400003189D29AF072F08B100B201B30130088F
:100350000021B20031080021B30008003B08B400BE
:10036000B601B5010A30B4020318B50A0318B3295F
:10037000B4073408B600B701B80135080021B7004A
:1003800036080021B8000800031783168801890188
:1003900003138316850187018801890103138312E2
:1003A000850187018801890120140800051585153C
:1003B000091408000730B9000730BA000730BB0045
:1003C0000800031383128B170B178B160B110313E3
:1003D00083160C148C14031383120C108C10080059
:1003E000031383160F178F120F120F140800031335
:1003F00083168112811101158114011403138312D4
:10040000FE3081000B1108000313831210149010AA
:10041000101690160313831285308F00EE308E0075
:100420000C100800031383121215121792161216DD
:1004300092159214921503138312FF3092008C10C0
:020440000800B2
:04400E00C430FF3F7C
:00000001FF
