:060000000A128A11142906
:10000800F000030EF1000B19C6200C1846200B1C3B
:1000180015282C181A28AC1822202C192E20AC19B7
:100028003A20710E8300F00E700E0900061D1E2086
:100038000B101528AC01AC16AC140800061CC90A34
:10004800861CC903061D2A200B101528AC012C1587
:10005800AC160800061CCA0A861CCA03061D3620F0
:100068000B101528AC01AC15AC160800061CCB0A01
:10007800861CCB03061D42200B101528AC012C163C
:10008800AC1608000313831285308F00EE308E0003
:100098000C1020185420A0187A202019A02008003D
:1000A800C103A303AA03AB030630A30222186E20E0
:1000B80003197020221CA3070330A302A2186E2084
:1000C800A2186A2803197320A21CA307230803197E
:1000D80077200800A30708002214A30708002210AD
:1000E800A214A3070800A21022150800C203A40343
:1000F800A903AB030630A402221894200319962002
:10010800221CA4070330A402A2189420A218902845
:1001180003199920A21CA407240803199D2008008C
:10012800A40708002214A40708002210A214A40798
:100138000800A21022150800C303A503A903AA03F7
:100148000630A5022218BA200319BC20221CA507D4
:100158000330A502A218BA20A218B6280319BF2096
:10016800A21CA50725080319C3200800A507080035
:100178002214A50708002210A214A5070800A2103F
:100188002215080003138312FE3081000B11880129
:100198004418DC28C418E2284419E828C419EE28B1
:1001A800441AF428C41AFA28441B0029C41B082935
:1001B8003608870088150230C40008003508870013
:1001C80008150430C40008003B088700881608306A
:1001D800C40008003A08870008161030C400080058
:1001E8004008870088172030C40008003F088700AF
:1001F80008174030C4000800AC1E052931088700E4
:1002080088148030C4000800AC1E0D29300887000F
:1002180008140130C400080039345E34793471346C
:10022800302277227E228B225E226D2257224E2296
:100238005322AC182A212C193121AC193821201845
:100248005321A0187E212019A4211D2986160613E2
:1002580086134908AD003F21080086120617861349
:100268004A08AD003F2108008612061386174B087E
:10027800AD003F210800AE01AF010A30AD020318FE
:10028800AF0A03184229AD072D08AE00B001B1012D
:100298002F080021B0002E080021B1000800211C01
:1002A8007521D021EA21042222185F21A218692190
:1002B80022196C2108000511642105156421080024
:1002C8007C30C700C70B6629080005118514080093
:1002D8008510051485168511A001A0142110A2010E
:1002E80008004108A300A600AA00AB074208AB0714
:1002F80021140800A11C9B21D021EA2104222218E4
:100308008A21A2188F2122199221080085126421BE
:100318008516642108008512051608000512851542
:10032800091509102015A010A110A2010800420803
:10033800A400A700AB00A9074308A907A114080057
:10034800211DC721D021EA2104222218B021A21898
:10035800B5212219B8210800091164210915642161
:1003680008000911891408000510051509148910D9
:10037800201420112111A2012608C1002708C2005B
:100388002808C30008004308A500A800A900AA007F
:100398002608AA072115080021182122A1181E22C3
:1003A80021191E22B401B3010A30B2020318B30A9C
:1003B8000318D929B2073208B400B501B6013308C9
:1003C8000021B50034080021B600080021182422B5
:1003D800A118272221192422B901B8010A30B7022D
:1003E8000318B80A0318F329B7073708B900BA0180
:1003F800BB0138080021BA0039080021BB000800F9
:1004080021182A22A1182A2221192D22BE01BD0154
:100418000A30BC020318BD0A03180D2ABC073C08A1
:10042800BE00BF01C0013D080021BF003E080021F9
:10043800C00008002908B20008004108B2000800FE
:100448002A08B70008004208B70008002B08BC00BB
:1004580008004308BC0008000317831688018901B7
:100468000313831685018701880189010614861400
:10047800061586120613861381131514951415157F
:1004880003138312850186018701880189012014DD
:100498002C1408000A30C900CA00CB000800051552
:1004A8008515091408000730C1000730C20007305D
:1004B800C3000800031383128B170B178B150B103F
:1004C8008B160B11031383160C14031383120C10D1
:1004D80008000313831616149614161503138312B3
:1004E80006080B100800031383160F178F120F123C
:1004F8000F1408000313831681128111011581144A
:10050800011403138312FE3081000B11080003133A
:10051800831210149010101690160313831285304E
:0A0528008F00EE308E000C1008006A
:04400E00C430FF3F7C
:00000001FF
