:060000000A128A11842996
:10000800F000030EF1000B191E210C1892200B1C96
:1000180017282F181C28AF1824282F194228AF1981
:1000280060282F1A7E28710E8300F00E700E0900CA
:10003800061D20200B101728AF01AF16AF140800BB
:10004800061C2C20861C3520061D3E200B10172868
:100058004B08143C031DCB0A031D34280A30CB007F
:1000680008004B080A3C031DCB03031D3D28143030
:10007800CB000800AF012F15AF160800061C4A2058
:10008800861C5320061D5C200B1017284C08143CB6
:10009800031DCC0A031D52280A30CC0008004C0866
:1000A8000A3C031DCC03031D5B281430CC00080058
:1000B800AF01AF15AF160800061C6820861C71201A
:1000C800061D7A200B1017284D08143C031DCD0A75
:1000D800031D70280A30CD0008004D080A3C031D96
:1000E800CD03031D79281430CD000800AF012F1669
:1000F800AF160800061C8420861C8A200B101728BF
:100108000130B5002F17A001A10108000A30CB006B
:10011800CC00CD00AF0186132F14080003138312FF
:1001280085308F00EE308E000C102F1BA220201877
:10013800A620A018CE202019F6200800B50B08002C
:10014800AF170800A219AC03A21DC503A303AA0395
:10015800AB030630A3022218A3070319C320221CED
:10016800A3070330A302A218A307A218BF280319E4
:10017800C620A21CA30723080319CB2008002214B9
:10018800A30708002210A215A214A3070800A210B2
:1001980022150800A219AD03A21DC603A403A903D2
:1001A800AB030630A4022218A4070319EB20221C73
:1001B800A4070330A402A218A407A218E728031969
:1001C800EE20A21CA40724080319F3200800221417
:1001D800A40708002210A215A214A4070800A21060
:1001E80022150800A219AE03A21DC703A503A9037F
:1001F800AA030630A5022218A50703191321221CF9
:10020800A5070330A502A218A507A2180F290319EC
:100218001621A21CA507250803191B210800221472
:10022800A50708002210A215A214A5070800A2100D
:100238002215080003138312FF3081000B11880177
:1002480048183429C8183A2948194029C81946298C
:10025800481A4C29C81A5229481B5829C81B602912
:100268003A0887008815C801C814080039088700AB
:100278000815C801481508003F0887008816C801F6
:10028800C81508003E0887000816C8014816080067
:10029800440887008817C801C81608004308870063
:1002A8000817C80148170800AF1E5D2934088700E1
:1002B8008814C801C8170800AF1E652933088700CD
:0802C8000814C80148140800E5
:1002E0008A010A140F3982073F3406345B344F34D5
:1002F00066346D347D3407347F346F3477347C3426
:1003000039345E3479347134F12237233E234B2360
:100310001E232D23192310231523AF189C212F19D9
:10032000A321AF19AA212F1BB1292018E721A0185A
:100330001C22201948228D298616061386134B0885
:10034000B000D32108008612061786134C08B000AF
:10035000D32108008612061386174D08B000D3215A
:10036000080085018901861606178617051485156C
:100370000914E922AF1FB3294B08C5004C08C60079
:100380004D08C7000A30CB00CC00CD0085018901A3
:10039000051585150914AF01A2012F14201486122A
:1003A000061386138D29B101B2010A30B002031879
:1003B000B20A0318D629B0073008B100B301B4015E
:1003C00032087021B30031087021B4000800211CEC
:1003D0000F227A229422AE222218F321A21803229D
:1003E0002219062208000511FA21FA210515FA2121
:1003F000FA2108009B30C9000030CA00C90BFE2951
:10040000CA0B002A08000511851408008510051480
:1004100085168511A001A0142110A201080045082D
:10042000A300A600AA00AB004608AB0721140330C6
:10043000C5020330AC000800A11C3B227A229422A2
:10044000AE2222182822A2182F22221932220800B6
:100450008512FA21FA218516FA21FA21080085125F
:100460000516080005128515091509102015A0109C
:10047000A110A20108004608A400A700AB00A90033
:100480004708A907A1140330C6020330AD000800D5
:10049000211D6D227A229422AE2222185422A21803
:1004A0005B2222195E2208000911FA21FA2109159E
:1004B000FA21FA2108000911891408000510051510
:1004C00009148910201420112111A2012608C50049
:1004D0002708C6002808C70008004708A500A8008C
:1004E000A900AA002608AA0721150330C702033075
:1004F000AE0008002118CB22A118C8222119C82259
:10050000B801B7010A30B6020318B70A0318832AE4
:10051000B6073608B800B901BA0137087021B9002A
:1005200038087021BA0008002118D322A118D62259
:100530002119D322BD01BC010A30BB020318BC0A39
:1005400003189D2ABB073B08BD00BE01BF013C0844
:100550007021BE003D087021BF0008002118DE2276
:10056000A118DE222119E122C201C1010A30C00214
:100570000318C10A0318B72AC0074008C200C30104
:10058000C40141087021C30042087021C400080062
:100590002908B6000800A21DD02A2C08B6000800C1
:1005A0004508B60008002A08BB000800A21DDB2A87
:1005B0002D08BB0008004608BB0008002B08C0003F
:1005C0000800A21DE62A2E08C00008004708C00047
:1005D00008000030B600BB00C0007A229422AE2290
:1005E0000800031783168801890103138316850108
:1005F00087018801890106148614061586120613E0
:100600008613811315149514151503138312850190
:10061000860187018801890120142F14C90108006F
:100620000A30CB00CC00CD00080005158515091453
:1006300008000A30C500C600C70008000313831273
:100640008B170B178B150B108B160B1103138316BF
:100650000C14031383120C100800031383161614D2
:10066000961416150313831206080B1008000313C3
:1006700083160F178F120F120F140800031383161F
:100680008112811101158114011403138312FF30AB
:1006900081000B1108000313831210149010101620
:1006A00090160313831285308F00EE308E000C10ED
:0206B000080040
:04400E00C430FF3F7C
:00000001FF
