:060000000A128A11142906
:10000800F000030EF1000B1817200B191020F10E49
:100018008300F00E700E090003138312FE30810076
:100028000B11880A0B2820182520A0182D2020192C
:100038003A20A019472021280B28061D4F200B1015
:100048000800061CA40A861CA403061D4F200B10DA
:100058000800061CA50A861CA503061D35200B10E2
:1000680008002010A0102015A0110800061CA60AE0
:10007800861CA603061D42200B1008002010A010A5
:100088002011A0150800061C850A861C8503061D7C
:0A009800A0010B100800A00A0800E8
:100200008A010A140F3982073F3406345B344F34B5
:1002100066346D347D3407347F346F3477347C3406
:1002200039345E3479347134792159218021902117
:10023000862120182729A0182F2920193329A01931
:100240003729232919298612061386131929861698
:10025000061386132408A1003B214F211929861279
:10026000061786131929861206138617192986166A
:10027000061786171929A701A801A201A3010A30B0
:10028000A1020318A80A03184029A1072108A70002
:1002900028080021A20027080021A3000800081850
:1002A0005629881853292208870008002308870048
:1002B000080003178316880189010313831685013B
:1002C0000614861406158612061386138701880104
:1002D00089018113151495141515031383128501D3
:1002E00087018801861206138613A0010A30A40034
:1002F0000800031383160F178F120F120F14080034
:100300008B178B150B108B160B110800031383161C
:100310001614961416150313831206080B10080002
:100320000313831681128111011581140114031323
:0A0330008312FE3081000B1108005B
:04400E00C430FF3F7C
:00000001FF
